:020000040800F2
:10000000400F002025230008450700084707000887
:100010004B0700084F0700085307000800000000C6
:10002000000000000000000000000000570700086A
:1000300059070008000000005B0700085D07000882
:100040003F2300083F2300083F2300083F23000808
:100050003F2300083F2300083F2300083F230008F8
:100060003F2300083F2300083F2300083F230008E8
:100070003F2300083F2300083F2300083F230008D8
:100080003F2300083F2300083F2300083F230008C8
:100090003F2300083F2300083F2300083F230008B8
:1000A0003F230008E10900083F2300083F23000820
:1000B000770B0008430C0008110D00083F230008CF
:1000C0003F2300083F2300083F2300083F23000888
:1000D0003F2300089B2200083F2300083F2300081D
:1000E0003F2300083F2300083F23000800F002F8E8
:1000F00000F06AF80AA090E8000C82448344AAF158
:100100000107DA4501D100F05FF8AFF2090EBAE855
:100110000F0013F0010F18BFFB1A43F0010318473B
:100120008CC80000ACC800000A444FF0000C10F866
:10013000013B13F0070408BF10F8014B1D1108BF65
:1001400010F8015B641E05D010F8016B641E01F805
:10015000016BF9D113F0080F1EBF10F8014BAD1C55
:100160000C1B09D16D1E58BF01F801CBFAD505E073
:1001700014F8016B01F8016B6D1EF9D59142D6D3CD
:10018000704700000023002400250026103A28BFF5
:1001900078C1FBD8520728BF30C148BF0B607047F9
:1001A00066290BF02A80642907F0988400207047A4
:1001B0001FB508F025F804000020002109F044FED6
:1001C000E0601FBD10B510BD08F062F91146FFF7E1
:1001D000EFFF00F0B4F808F080F903B4FFF7F2FF86
:1001E00003BC01F0FFFF00000146002901DA48428C
:1001F00000E00846704770B5FE480168FE48006898
:100200000AF086FFFD490860FD480168FD48006866
:100210000AF07EFFFC490860FC480168FC48006861
:100220000AF076FFFB490860FB480168FB4800685C
:100230000AF06EFFFA490860FA480168FA48006857
:100240000AF066FFF9490860F9480168F948006852
:100250000AF05EFFF8490860E84800680AF0B4FD5B
:100260000546FFF7C1FF04460AF002FEE3490860B5
:10027000E54800680AF0A8FD0546FFF7B5FF04460B
:100280000AF0F6FDE0490860E24800680AF09CFDCB
:100290000546FFF7A9FF04460AF0EAFDDD490860BC
:1002A000E649D64800680AF0F7FE0BD3E349D64882
:1002B00000680AF0F1FE05D3E049D64800680AF06C
:1002C000EBFE0BD2CC480068CA490860CD480068F4
:1002D000CB490860CE480068CC490860D849D0486E
:1002E00000680AF0D9FE05D3D649CD4800680AF067
:1002F000D3FD03D2C9480068C7490860D049CB483C
:1003000000680AF0C9FE05D3CE49C84800680AF063
:10031000C3FD03D2C4480068C2490860CA49C64840
:1003200000680AF0B9FE05D3C849C34800680AF05E
:10033000B3FD03D2BF480068BD49086070BD00240A
:1003400001F0E6FE00F034FD00F0FAFA4FF4E1307F
:1003500001F057FF4FF47A71242000F00BFB472186
:10036000084600F0ABFB4721084600F00FFC472190
:10037000084600F071FC0021012000F0A5FD0021DD
:10038000012000F0C4FD0021012000F0E3FD01F098
:1003900061F907F078F807F08AF801F0EDFB01F059
:1003A00070FC01F0F8FC0A2001F0EFFE7BE0A848A9
:1003B000007800285FD10223A64A012101F006FD42
:1003C0000123A54A0321002001F000FD4FF47A70BB
:1003D00001F0DBFE4FF47A7001F0D7FE4FF47A7033
:1003E00001F0D3FE4FF47A7001F0CFFE4FF47A7033
:1003F00001F0CBFE4FF47A7001F0C7FE4FF47A7033
:1004000001F0C3FE4FF47A7001F0BFFE4FF47A7032
:1004100001F0BBFE4FF47A7001F0B7FE4FF47A7032
:1004200001F0B3FE4FF47A7001F0AFFE4FF47A7032
:1004300001F0ABFE4FF47A7001F0A7FE4FF47A7032
:1004400001F0A3FE012082490870002403E007F0B8
:100450008FF8601CC4B2FF2CF9DB6F4800687F493D
:100460000860704800687E490860714800687D49EE
:10047000086001F090FC7C48006808B9012000E0A9
:1004800000207949086007F073F8FFF7B4FE4FF4D5
:10049000167001F093F87548026875480168754850
:1004A000006801F068F882E72DE9FF5F00244FF053
:1004B0007E5AD34650460390029001900090054624
:1004C0000646814660E0002403E007F051F8601C16
:1004D000C4B2FF2CF9DB5048006802905148006814
:1004E0000190534800680090294602980AF010FED7
:1004F0008346314601980AF00BFE82464946009831
:100500000AF006FE039002980AF0CEFA07463A4631
:100510000B4659A007F0A2FA01980AF0C5FA07465F
:100520003A460B4657A007F099FA00980AF0BCFA31
:1005300007463A460B4656A007F090FA28460AF0BE
:10054000B3FA07463A460B4654A007F087FA3046FE
:100550000AF0AAFA07463A460B4653A007F07EFA7D
:1005600048460AF0A1FA07463A460B4651A007F062
:1005700075FA294805682B4806682D48D0F8009080
:100580004FF47A7001F001FE58460AF08DFA0746E2
:100590004B4A4C4B0AF076F808D358460AF084FAD6
:1005A0000746474A484B09F033FF21D250460AF02C
:1005B0007BFA0746424A434B0AF064F808D3504698
:1005C0000AF072FA07463E4A3F4B09F021FF0FD26C
:1005D00003980AF069FA0746394A3A4B0AF052F88A
:1005E000FFF471AF03980AF05FFA0746344A6DE0F2
:1005F00070E000004C000020840000209C000020DF
:100600005400002088000020A0000020500000209E
:100610008C000020A4000020400000207800002072
:1006200090000020440000207C0000209400002066
:100630004800002080000020980000200000FA45BB
:1006400000007A4400007AC400409C4500409CC5EC
:10065000C0000020C2000020CF00002028000020A1
:100660002C00002030000020808121420C0000205E
:100670000800002004000020615F783A25662020F1
:1006800000000000615F793A25662020000000002C
:10069000615F7A3A2566202000000000615F785F84
:1006A0006C3A256620200000615F795F6C3A256610
:1006B00020200000615F7A5F6C3A25660D0A000019
:1006C0009A9999999999C93F9999C9BF194B09F074
:1006D0009FFE85D3BDE8FF9F17490968814202DD6F
:1006E0001549086007E0144909684242914202DA5C
:1006F0004142114A116011490968814202DD0F49E6
:10070000086007E00D4909684242914202DA41421D
:100710000A4A11600A490968814202DD08490860F5
:1007200007E0074909684242914202DA4142044A1D
:10073000116070479999C9BF04000020080000208B
:100740000C000020704700BFFEE700BFFEE700BFBF
:10075000FEE700BFFEE77047704770477047000034
:100760000CB50020019000906C48006840F4803087
:100770006A49086000BF6948006800F400300090D2
:100780000198401C0190009818B90198B0F5A06F2D
:10079000F1D16248006800F4003010B101200090EF
:1007A00001E0002000900098012843D15C480068D7
:1007B00040F010005A4908600846006820F0030025
:1007C00008600846006840F002000860534840682E
:1007D000524948600846406848600846406840F40E
:1007E000806048600846406820F47C1048600846F5
:1007F000406840F4E81048600846006840F08070A7
:10080000086000BF4548006800F000700028F9D07B
:100810004248406820F0030040494860084640686C
:1008200040F00200486000BF3C48406800F00C0007
:100830000828F9D10CBD10B5FFF792FF10BD10B517
:100840003648006840F001003449086008464068B6
:100850003449084031494860084600683249084038
:100860002E4908600846006820F480200860084689
:10087000406820F4FE0048604FF41F008860FFF7D6
:10088000DAFF4FF000602949086010BD10B5002163
:1008900000200022214B5B6803F00C0121B10429E8
:1008A00006D0082928D107E0214B224C236027E0FD
:1008B0001F4B204C236023E0184B5B6803F470103F
:1008C000164B5B6803F48032022303EB904022B99D
:1008D000194B4343174C23600DE0104B5B6803F446
:1008E000003323B1144B4343124C236003E0104BFD
:1008F0004343104C236003E00D4B0E4C236000BFBC
:1009000000BF064B5B68C3F303130C4CE15C094B5F
:100910001B68CB40074C236010BD00000010024054
:10092000002002400000FFF8FFFFF6FE08ED00E0A7
:1009300000127A00F000002000093D00F4000020C1
:1009400008B50121082002F029F80120ADF80000C7
:1009500010208DF8030003208DF80200694604483A
:1009600001F060FD0121024801F009FE08BD000010
:10097000000C01407FB505460C460121C80202F07B
:100980000DF8681E80B2ADF80800601E80B2ADF8A8
:1009900004000020ADF80600ADF80A008DF80C0048
:1009A00001A9E14802F0A4FB19208DF80000012004
:1009B0008DF8030000208DF801008DF802006846D4
:1009C00002F059FA0121D84803F0B4F90122114686
:1009D000D54802F004FF0121D34802F0E5FE7FBDB7
:1009E00010B50121D04803F0A8F9002865D00121F5
:1009F000CD4803F0B3F9CD480168CD4800680AF04E
:100A000087FBCC490860CC480168CC4800680AF0F4
:100A10007FFBCB490860CB480168C648006800F0FE
:100A200015FCC9490860C9480168C548006800F05C
:100A3000E7FB4042C6490860C3490968C54A1268D5
:100A400088180AF0FDF9C4490860C1490968C34A19
:100A5000126888180AF0F4F9C14908600020C149F9
:100A6000086008460268BE480168BB48006800F09C
:100A7000CDFABD480068BD490860BD480068BD4961
:100A80000860BD480068BD490860AE480068BC49C0
:100A90000860AE480068BB490860BB480068BB49B5
:100AA0000860A3480068BA490860A4480068B949CA
:100AB0000860B9480068B949086010BD30B589B010
:100AC00005460C460121084601F075FF012105206D
:100AD00001F064FF0120ADF8200018208DF82300FC
:100AE00003208DF8220008A9AD4801F09BFC4FF0CF
:100AF000804002F029FAADF81850ADF814400020FB
:100B0000ADF81A00ADF8160005A94FF0804002F0CC
:100B1000EFFA6020ADF804000120ADF806000020D7
:100B2000ADF80C003220ADF80A0001A9400702F030
:100B30001CFB0821C80602F067FF0122114690073E
:100B400002F04DFE1C208DF8000000208DF8010001
:100B500003208DF8020001208DF80300684602F0A2
:100B60008AF90121880702F01FFF0121880702F09E
:100B70001BFE09B030BD10B50121880703F0DDF878
:100B800018B10121880703F0E9F810BD30B589B02C
:100B900005460C460121022001F00DFF012109202C
:100BA00001F0FCFE0220ADF8200018208DF8230093
:100BB00003208DF8220008A97A4801F033FC7A4816
:100BC00002F0C2F9ADF81850ADF814400020ADF8AD
:100BD0001A00ADF8160005A9734802F089FA6020E2
:100BE000ADF804000120ADF806000020ADF80C00BF
:100BF0003220ADF80A0001A96B4802F090FB0821F1
:100C0000694802F020FF01221146674802F0E7FD23
:100C10001D208DF8000000208DF8010003208DF8C4
:100C2000020001208DF80300684602F024F901213A
:100C30005D4802F0B9FE01215B4802F0B5FD09B044
:100C400030BD10B50121584803F077F818B10121E3
:100C5000554803F083F810BD30B589B005460C4601
:100C60000121042001F0A7FE0121092001F096FED8
:100C70004FF40070ADF8200018208DF823000320F9
:100C80008DF8220008A9474801F0CCFB474802F044
:100C90005BF9ADF81850ADF814400020ADF81A001B
:100CA000ADF8160005A9414802F022FA6020ADF81F
:100CB00004000120ADF806000020ADF80C00322041
:100CC000ADF80A0001A9394802F029FB082137488C
:100CD00002F0B9FE01221146344802F080FD1E20C8
:100CE0008DF8000000208DF8010003208DF802002F
:100CF00001208DF80300684602F0BDF801212B4861
:100D000002F052FE0121294802F04EFD09B030BD2B
:100D100010B50121254803F010F818B1012123482E
:100D200003F01CF810BD0000002C0140280000203A
:100D300040000020340000202C000020440000204F
:100D4000380000204C0000206400002054000020E7
:100D50006C00002068000020580000207000002077
:100D60005C00002060000020100000200400002033
:100D70001400002008000020180000200C000020B3
:100D80008400002088000020500000208C000020FB
:100D9000780000207C000020480000208000002017
:100DA00000080140000C0140000400400008004021
:100DB00008B501210C2001F0F1FD0E20ADF8000076
:100DC00010208DF8030003208DF802006946874843
:100DD00001F028FB6946864801F024FB0221834884
:100DE00001F0CDFB0221824801F0C9FB04218048BB
:100DF00001F0C5FB08217E4801F0C1FB08BD2DE9CB
:100E0000F34F85B08A46472004900022794B104664
:100E1000794908F007FB80468946C8210AFB01F0A2
:100E20007649098848433C2190FBF1FBBBF1000F58
:100E300002D10024254617E00499491C0BFB01F060
:100E400009F0D2FACDE90201059809F0CDFA06467B
:100E500042464B4609F018FBCDE90001DDE90223CB
:100E600009F0F6F804460D462046294609F078FABE
:100E700007B0BDE8F08F2DE9F04106460C46174655
:100E8000204604EBD0714FEA610826B90421584886
:100E900001F075FB03E00421554801F072FB0025C9
:100EA0000EE00221514801F06AFB404601F049F989
:100EB00002214E4801F065FB404601F042F96D1CED
:100EC000BD42EED3BDE8F08170B505460C4626461E
:100ED00000214B4802F068FD49492C310E80C6F3D1
:100EE0004F004749403108800121454802F05CFD30
:100EF0000121434802F058FC25B902213C4801F089
:100F00003EFB03E002213A4801F03BFB70BD70B5A7
:100F100005460C46264600214FF0804002F044FD75
:100F20004FF080418E85C6F34F003649088001217D
:100F3000880702F039FD0121880702F035FC25B948
:100F400004212B4801F01BFB03E00421284801F099
:100F500018FB70BD70B505460C46264600212A4890
:100F600002F022FD28492C310E80C6F34F0026499D
:100F7000343108800121244802F016FD0121224865
:100F800002F012FC25B90821194801F0F8FA03E033
:100F90000821174801F0F5FA70BD70B504460D46FA
:100FA0001646002C04DDA1B20020FFF78DFF04E0FF
:100FB000604281B20120FFF787FF002D04DDA9B256
:100FC0000020FFF7A4FF04E0684281B20120FFF790
:100FD0009EFF002E04DDB1B20020FFF7BBFF04E04E
:100FE000704281B20120FFF7B5FF70BD000C0140D7
:100FF00000080140000018400000244004010020C7
:101000000004004040000040000800402DE9F04787
:101010008CB004468946924651464FF07E5009F006
:101020006FFF0646214609F06BFD054609F0CCFE30
:10103000FE49086051464FF07E5009F061FF0546B9
:1010400009F032FDCDE90801484609F02DFD0546BD
:101050000E460020F64908F0D1FE074600224FF068
:10106000804308F0F5FF2A463346CDE9000109F038
:101070000BFACDE904014FF03F41204609F040FF53
:10108000054609F011FDCDE90201DDE9042308F070
:1010900023FFCDE90601DDE9082308F01DFFCDE9B6
:1010A0000A0109F02DF9E349086051464FF07E50DE
:1010B00009F026FF054609F0F7FCCDE9080148468E
:1010C00009F0F2FCCDE902010020D94908F096FEB2
:1010D000054600224FF0804308F0BAFFCDE9000139
:1010E000DDE9022309F0D0F9074688464FF03F4179
:1010F000204609F005FF054609F0D6FC3A4643466E
:10110000CDE9040109F0E6FBCDE90601DDE908239C
:1011100008F0E2FECDE90A0109F0F2F8C6490860DC
:101120000CB0BDE8F0872DE9F74F82B08A469346B0
:101130004FF08041029809F0E3FE0646514609F05F
:10114000E7FF0546594609F0E3FF044609F03CFE77
:10115000BA4908600020B64908F050FE04460D4622
:101160005946504609F0D4FF019009F09DFC06460F
:1011700022462B4609F088F9804609F0C1F8B049AB
:1011800008605146029809F0BBFC0546594609F033
:10119000B7FC044609F018FEAA49086005B0BDE88E
:1011A000F08F2DE9FE4F04460D460026A648006844
:1011B00009F00AFE01903146204609F0A9FF02908D
:1011C000019809F03DFE2946009009F099FE8346FA
:1011D0009E4909F003FD81469D480299006809F087
:1011E0008FFE83469B4909F0F9FC8246494609F087
:1011F00087FC804609F0E8FD07463846BDE8FE8FCB
:101200002DE9F05F04460D462646314692480068B7
:1012100009F07EFF834631469048006809F070FE71
:1012200081468F480168284609F06AFE8246874950
:1012300009F0D4FC80464146484609F061FC8246EC
:1012400009F0C2FD07463846BDE8F09F2DE9F05F82
:1012500004460D46264631467F48006809F058FF8F
:10126000834631467D48006809F04AFE81467C4845
:101270000168284609F044FE8246744909F0AEFC34
:1012800080464146484609F03BFC824609F09CFDF9
:1012900007463846BDE8F09F2DE9F14F002071491F
:1012A0000860009805F077FE044609F0C9FD6E4914
:1012B00008606E48006809F0F7FB06464FF066329A
:1012C0006B4B09F0E1F8044608F0D4FD674908606B
:1012D0006548006809F0E8FB80464FF03332654B03
:1012E00009F0D2F804460D466048006809F0DCFBBE
:1012F000064622462B4608F0EFFD824608F0BAFD6E
:101300005A490860084601685B48006809F0F8FB24
:1013100059490860534801685748006809F0F0FBD4
:101320005549086055495448006809F0B5FE02D295
:1013300052485149086052494F48006809F0ACFDD5
:1013400002D24F484C4908604E4801684A4800683C
:1013500009F0D6FD06464C4909F040FC04464B48CE
:1013600001684248006809F0CBFD0646374909F09C
:1013700035FC0546214609F0C3FB4549086045494F
:101380004348006809F088FE02D24248404908609C
:1013900041493F48006809F07FFD02D23E483C4980
:1013A00008603B48006809F00FFDBDE8F88F2DE9A3
:1013B000F14F002039490860009805F00DFE044601
:1013C00009F03EFD364908603648006809F06CFBBC
:1013D00006464FF06632264B09F056F8044608F0F0
:1013E00049FD304908602E48006809F05DFB8046E1
:1013F0004FF033321F4B09F047F804460D46294899
:10140000006809F051FB064622462B4608F064FDB1
:10141000824608F02FFD23490860084601682248EB
:10142000006809F06DFB204908603FE010000020D3
:101430000000084014000020180000201C000020BC
:101440002000002024000020BC0000200000C84232
:10145000B8000020000020417C000020A8000020EF
:10146000AC000020140100200C010020100100201D
:101470006666E63F3333D33F18010020007C1248F4
:10148000007C12C8B400002000409C45B000002041
:101490000801002000007A4400007AC428010020DE
:1014A00020010020240100202C010020594801685F
:1014B0005948006809F024FB5749086057495648C5
:1014C000006809F0E9FD02D25448534908605449C4
:1014D0005148006809F0E0FC02D251484E490860CA
:1014E000504801684C48006809F00AFD06464E491C
:1014F00009F074FB04464D4801684D48006809F046
:10150000FFFC06464B4909F069FB0546214609F0F8
:10151000F7FA4949086049494748006809F0BCFDA5
:1015200002D246484449086045494348006809F0EA
:10153000B3FC02D24248404908603F48006809F0C5
:1015400043FCBDE8F88F0146002901DA484200E07B
:101550000846704710B504462046FFF7F4FF3949A6
:10156000B1FBF0F3B3F5803F02D34FF6FF7200E01A
:101570009AB2104610BD2DE9F04706460C461546B6
:101580003046FFF7E7FF07462046FFF7E3FF8046B8
:101590002846FFF7DFFF8146002E00DA7F42002C4D
:1015A00001DAC8F10008002D01DAC9F100094A4644
:1015B00041463846FFF7F1FCBDE8F087224909684B
:1015C0004242914202DA41421F4A11601E490968B3
:1015D000814201DD1C4908601C4909684242914270
:1015E00002DA4142194A116018490968814201DD55
:1015F00016490860164909684242914202DA41429E
:10160000134A116012490968814201DD10490860DE
:1016100070470000280100202C010020007C1248A7
:10162000007C12C8B400002000409C45B00000209F
:10163000240100200000C8421C01002000007A4460
:1016400000007AC440420F0004000020080000207F
:101650000C00002008B50121082001F09FF940206E
:10166000ADF8000003208DF8020010208DF8030073
:101670006946F74800F0D6FE8020ADF80000032050
:101680008DF8020010208DF803006946F04800F044
:10169000C9FE08BD10B5EE48006820F07040EC4966
:1016A00008600846006840F0405008600120E949A1
:1016B0000860E948D0F81C0108B9002010BD0120DD
:1016C000E449091F086000F03CFD0020E249C1F830
:1016D0009C01E0488038006808B10020EEE7012056
:1016E00000F02FFD0020DB49091F08600120E5E71D
:1016F00010B5D748006820F07040D549086008460A
:10170000006840F0405008600020D249091F08607E
:10171000D149C1F89C01012000F013FD0120CD4901
:10172000091F0860CC49C1F89C0100F00AFD10BDFA
:1017300010B50024C648006820F07040C449086015
:101740000846006840F0004008600120C149086078
:1017500000F0F7FC0120C049C1F8980100F0F1FC4D
:101760000AE0601CC4B2322C03DDFFF7C1FF002089
:1017700010BD012000F0E5FCB64880380068002864
:10178000EFD1B449091F08600120F1E710B500202E
:10179000B049091F0860AE48006820F07040AC49AD
:1017A00008600846006840F0405008600020AA49E0
:1017B000C1F89C01012000F0C4FC0120A549091FCB
:1017C000086000F0BEFC0020A349C1F8980110BDDC
:1017D00010B500209F49091F08609D48006820F04F
:1017E00070409B4908600846006840F0405008601F
:1017F00001209949C1F89C0100F0A3FC0120954902
:10180000091F086000F09DFC00209349C1F8980171
:1018100010BD70B504468E48006820F070408C49B9
:1018200008600846006840F0405008600020894980
:10183000091F0860002516E0E00986490860600677
:10184000040E012000F07DFC01208349C1F89801BD
:1018500000F077FC00207F49091F0860012000F09C
:1018600070FC681CC5B2082DE6DB70BD2DE9F041A7
:1018700005460E4617469846FFF70CFF10B90120A3
:10188000BDE8F0816906080EFFF7C3FFFFF750FFC0
:1018900018B9FFF72DFF0120F2E73046FFF7B9FF37
:1018A000FFF746FF00240BE018F80400FFF7B1FF34
:1018B000FFF73EFF18B9FFF71BFF0020E0E7641CAD
:1018C000BC42F1DBFFF714FF0020D9E770B50546F5
:1018D00000245F48006820F070405D4908600846B9
:1018E000006840F000400860002617E000205949D9
:1018F000091F0860022000F024FC01205649C1F8AD
:1019000098016006040E53488038006808B1601CD6
:10191000C4B2022000F015FC701CC6B2082EE5DB34
:1019200015B1FFF733FF01E0FFF752FF204670BD0E
:101930002DE9F04106460F4614461D46FFF7AAFE64
:1019400010B90120BDE8F0817106080EFFF761FFB4
:10195000FFF7EEFE18B9FFF7CBFE0120F2E738469D
:10196000FFF757FFFFF7E4FEFFF794FE012101EBBD
:101970004601C8B2FFF74DFFFFF7DAFE0DE0012C7C
:1019800004D10020FFF7A2FF287003E00120FFF739
:101990009DFF28706D1C601EC4B2002CEFD1FFF7B4
:1019A000A7FE0020CEE770B505460E460024FFF7DF
:1019B00071FE2846FFF72DFF641CFFF7B9FE304685
:1019C000FFF727FF641CFFF7B3FEFFF763FE691CF8
:1019D000C8B2FFF71EFF641CFFF7AAFE0020FFF746
:1019E00075FF0446FFF784FE204670BD2DE9F041E7
:1019F0000746884615461E460024FFF74BFE38462C
:101A0000FFF707FFFFF794FE4046FFF702FFFFF7DF
:101A10008FFEFFF73FFE791CC8B2FFF7FAFEFFF713
:101A200087FE00BF0DE0681EA04204D00120FFF732
:101A30004DFF305503E00020FFF748FF3055601C94
:101A4000C4B2AC42EFDBFFF753FE2046BDE8F081A5
:101A5000000C01409C812142008021422DE9F0418F
:101A600080460D4616461F460024FFF713FE4046EB
:101A7000FFF7CFFEFFF75CFE2846FFF7CAFEFFF731
:101A800057FE00BF06E0385DFFF7C3FEFFF750FECC
:101A9000601CC4B2B442F6DBFFF72AFE0120BDE8A9
:101AA000F08170B505460E46144631462846FFF7CC
:101AB0007AFF2070012070BD37B504460D4602AB99
:101AC000012229462046FFF7C9FF3EBD2DE9F84314
:101AD0000746884614461D46089E6A4641463846D3
:101AE000FFF7DFFF28B3601CFF2101FA00F0C4F10B
:101AF00008012944491EFF220A41104300F0FF0952
:101B0000C5F1080006FA00F0C6B2C4F107000641AC
:101B10009DF8000000EA090000909DF800003043A5
:101B200000909DF8002041463846FFF7C5FFBDE80C
:101B3000F8830020FBE7F8B506460F4614461D461D
:101B40006A4639463046FFF7ACFF2DB10120A04070
:101B50009DF80010084305E00120A0409DF800100A
:101B600021EA0000C0B200909DF8002039463046BE
:101B7000FFF7A2FFF8BD000000B585B00121880580
:101B800000F019FF0121082000F008FF4FF4406029
:101B9000ADF8000003208DF802001C208DF8030032
:101BA0006946FE4800F03EFCFD4802F0DBF80020EC
:101BB000ADF808004BF6FF70ADF80A003020ADF824
:101BC0000C004FF48060ADF80E000001ADF810007D
:101BD000F44801900121F24802F05BF901A9F048B4
:101BE00002F0D9F805B000BD70B504460D4600BF3F
:101BF0004FF40031EA4802F073FA0028F8D10121CD
:101C0000E74802F06AF900BFE749E54802F046FA02
:101C10000028F9D000227821E14802F0B4F900BF91
:101C2000E249DF4802F03AFA0028F9D02146DC48C0
:101C300002F0A3F900BFDD49891CD94802F02EFA51
:101C40000028F8D02946D64802F097F900BFD749B6
:101C5000891CD34802F022FA0028F8D00121D0488C
:101C600002F047F970BD10B5044621460020FFF789
:101C7000BBFF10BD10B5044621464020FFF7B4FF5E
:101C800010BD10B5642000F080FAAE20FFF7EBFF26
:101C90002020FFF7E8FF1020FFF7E5FFB020FFF757
:101CA000E2FFC820FFF7DFFF0020FFF7DCFF102076
:101CB000FFF7D9FF4020FFF7D6FF8120FFF7D3FFC2
:101CC000FF20FFF7D0FFA120FFF7CDFFA620FFF7F1
:101CD000CAFFA820FFF7C7FF3F20FFF7C4FFA420DB
:101CE000FFF7C1FFD320FFF7BEFF0020FFF7BBFFC8
:101CF000D520FFF7B8FFF020FFF7B5FFD920FFF799
:101D0000B2FF2220FFF7AFFFDA20FFF7ACFF12206F
:101D1000FFF7A9FFDB20FFF7A6FF2020FFF7A3FFB7
:101D20008D20FFF7A0FF1420FFF79DFFAF20FFF7E6
:101D30009AFF10BD70B504460D4605F1B001C8B25A
:101D4000FFF791FF102141EA1410FFF78CFF04F018
:101D50000F0141F00100FFF786FF70BD70B5064628
:101D6000002415E004F1B001C8B2FFF77CFF0020A9
:101D7000FFF779FF1020FFF776FF002504E03046DB
:101D8000FFF778FF681CC5B2802DF8DB601CC4B279
:101D9000082CE7DB70BD10B50020FFF7DFFF10BD9A
:101DA00010B58D20FFF75FFF1420FFF75CFFAF2019
:101DB000FFF759FF10BD10B58D20FFF754FF10201D
:101DC000FFF751FFAE20FFF74EFF10BD2DE9F047A2
:101DD0000646894617469A464FF00008002400251B
:101DE000BAF1010F03D0BAF1020F5ED125E020E075
:101DF000785D203800F0FF087E2E04DD002609F112
:101E0000010000F0FF0949463046FFF793FF002428
:101E100009E008EB4801664A02EB4101085DFFF763
:101E200029FF601CC4B2062CF3DBB01DC6B2681CCF
:101E3000C5B2785D0028DBD137E032E0785D20382C
:101E400000F0FF08782E04DD002609F1010000F003
:101E5000FF0949463046FFF76DFF002407E004EB19
:101E60000811544A505CFFF705FF601CC4B2082CEF
:101E7000F5DB09F10100C1B23046FFF75BFF00243A
:101E800008E004EB081108314A4A505CFFF7F2FE03
:101E9000601CC4B2082CF4DB06F10800C6B2681C52
:101EA000C5B2785D0028C9D100BF00BFBDE8F0878A
:101EB0002DE9F0470446884615464FF000090026F4
:101EC000002720E0E85D203800F0FF097E2C04DDCB
:101ED000002408F1010000F0FF0841462046FFF70A
:101EE00029FF002609E009EB4901314A02EB4101D3
:101EF000885DFFF7BFFE701CC6B2062EF3DBA01D87
:101F0000C4B2781CC7B2E85D0028DBD1BDE8F08719
:101F1000F8B505460E4614460A20B4FBF0F100FB66
:101F2000114030308DF8000001236A4631462846C2
:101F3000FFF74CFFF8BD70B588B005460E46144655
:101F400004EB84004400002C46DA64422D20029009
:101F50000298C0B28DF80000642094FBF0F00A21D2
:101F600090FBF1F201FB1200303003900398C0B2F5
:101F70008DF801000A2094FBF0F090FBF1F201FBD8
:101F80001200303004900498C0B28DF802002E2068
:101F90008DF803000A2094FBF0F10DE0000C0140E5
:101FA00000580040801A060001000300820007006C
:101FB000EEB2000816B5000800FB11403030C0B288
:101FC0008DF8040000208DF8050001236A46314693
:101FD0002846FFF7FBFE35E02B2002900298C0B2A6
:101FE0008DF80000642094FBF0F00A2190FBF1F2E0
:101FF00001FB1200303003900398C0B28DF801004D
:102000000A2094FBF0F090FBF1F201FB120030305B
:1020100004900498C0B28DF802002E208DF80300C1
:102020000A2094FBF0F100FB11403030C0B28DF873
:10203000040000208DF8050001236A463146284639
:10204000FFF7C4FE08B070BD2DE9F04180460E4692
:10205000174600247D0131464046FFF76BFE00BF66
:1020600006E02A49485DFFF705FE6D1C601CC4B2FE
:10207000102CF6DB701CC1B24046FFF75BFE00245B
:1020800006E02249485DFFF7F5FD6D1C601CC4B2F7
:10209000102CF6DBBDE8F0812DE9F05F06460F4617
:1020A00090461C46DDF828A04FF0000BE11704EB2A
:1020B0005171C910A4EBC10131B92046E11704EBFD
:1020C0005171C1F3C70506E02046E11704EB5171D9
:1020D000C910491CCDB23D4614E029463046FFF7F1
:1020E00029FEB1460AE059460BF1010B1AF801002E
:1020F000FFF7C0FD09F1010000F0FF09C145F2DB67
:10210000681CC5B2A542E8DBBDE8F09F30010020A5
:1021100010B56FF0040000F0F8FE2E4800682E495C
:10212000B0FBF1F02D4908700846007800EB400143
:10213000C1EBC0104FF6FF7101EAC00028490880CA
:1021400010BD0146254A12784A434FF0E0235A61F8
:1021500000229A611A46126942F001021A6100BF18
:102160004FF0E022106900F001021AB100F4803251
:10217000002AF5D04FF0E022126922F001024FF060
:10218000E0231A6100229A6170470146144A1288BE
:102190004A434FF0E0235A6100229A611A461269BD
:1021A00042F001021A6100BF4FF0E022106900F016
:1021B00001021AB100F48032002AF5D04FF0E0227B
:1021C000126922F001024FF0E0231A6100229A61A5
:1021D00070470000F000002000127A0090060020F6
:1021E00092060020014600BF704700BF494A12888E
:1021F00002F04002002AF9D0C2B2464B1B1D1A80E1
:10220000704710B586B00446012144F2040000F086
:10221000C5FB4FF40070ADF8140003208DF81600D4
:1022200018208DF8170005A93B4800F0FBF84FF483
:102230008060ADF8140004208DF8170005A9364819
:1022400000F0F0F825208DF8000003208DF8010043
:102250008DF8020001208DF80300684600F00BFEA7
:1022600001940020ADF80800ADF80A00ADF80C00AC
:10227000ADF810000C20ADF80E0001A9254800F0C3
:1022800034FC012240F22551224800F0C6FC012115
:10229000204800F0B6FC06B010BD10B540F2255144
:1022A0001C4800F09FFD10B31A4800F01BFDC4B29B
:1022B0001A48008800F40040C8B91848008800F4A3
:1022C000804060B10A2C03D000201449088020E02F
:1022D0001248008840F400401049088019E00D2C95
:1022E00006D10E48008840F480400C49088010E078
:1022F0000A480088C0F30D0009490C5407480088BB
:10230000401C0649088008460088C72801DD0020D7
:10231000088010BD003801400008014098060020E8
:10232000600700200948804709480047FEE7FEE7AC
:10233000FEE7FEE7FEE7FEE7FEE7FEE7FEE7FEE775
:1023400004480549054A064B704700003F0800084D
:10235000ED00000840090020400F0020400B002045
:10236000400B002010B50446CC48844208D101211E
:10237000042000F02DFB0021042000F029FB46E0A2
:10238000C748844208D10121082000F021FB002128
:10239000082000F01DFB3AE0C248844208D1012128
:1023A000102000F015FB0021102000F011FB2EE0A2
:1023B000BD48844208D10121202000F009FB002102
:1023C000202000F005FB22E0B848844208D101211A
:1023D000402000F0FDFA0021402000F0F9FA16E05C
:1023E000B348844208D10121802000F0F1FA002195
:1023F000802000F0EDFA0AE0AE48844207D10121C6
:10240000801500F0E5FA0021A01500F0E1FA10BDFA
:1024100010B50121084600F0DBFA0021012000F090
:10242000D7FA10BD2DE9F041024600250026002014
:1024300000230024002791F803C00CF00F0591F849
:1024400003C00CF0100CBCF1000F03D091F802C0D7
:102450004CEA050591F800C0BCF1000F31D01468BA
:1024600000202BE04FF0010C0CFA00F3B1F800C093
:102470000CEA03069E4220D183004FF00F0C0CFAA9
:1024800003F7BC4305FA03FC4CEA040491F803C0CB
:10249000BCF1280F06D14FF0010C0CFA00FCC2F879
:1024A00014C00AE091F803C0BCF1480F05D14FF009
:1024B000010C0CFA00FCC2F810C0401C0828D1D353
:1024C0001460B1F800C0BCF1FF0F34DD5468002087
:1024D0002EE000F1080C4FF0010808FA0CF3B1F8F7
:1024E00000C00CEA03069E4221D183004FF00F0C7E
:1024F0000CFA03F7BC4305FA03FC4CEA040491F818
:1025000003C0BCF1280F05D100F1080C08FA0CF843
:10251000C2F8148091F803C0BCF1480F07D100F154
:10252000080C4FF0010808FA0CF8C2F81080401CA3
:102530000828CED35460BDE8F0814FF6FF710180CA
:10254000022181700421C170704702460020936807
:102550000B400BB1012000E0002070470146886865
:1025600080B2704702460020D3680B400BB10120B7
:1025700000E0002070470146C86880B270470161E2
:102580007047416170470AB1016100E041617047E5
:10259000C16070474FF480320A4382618161826179
:1025A00082698269704702460020434B18684FF6E3
:1025B0008073184040EA021008433F4B1860704790
:1025C0003E49C8617047F0B50A4600230024002147
:1025D000002500F00046B6F1004F02D1364EF169F9
:1025E00001E0354E7168C0F3034583B200F4401634
:1025F000B6F5401F08D121F070612F4E766826F0A5
:1026000070662D4F7E6012E000F48016B6F5801FD4
:1026100006D1032606FA05F4A14341F0706106E0F5
:10262000460D360103FA06F6B14341F0706122B15E
:10263000460D360103FA06F6314300F00046B6F1C6
:10264000004F02D11C4EF16101E01B4E7160F0BDE4
:1026500030B500228B071C0F0F2303FA04F2164B30
:1026600008338C1053F824309343134C08348D10E6
:1026700044F8253023468C1053F824308C07240F5F
:1026800000FA04F423430C4C08348D1044F8253030
:1026900030BD0A49DC310860704700000008014085
:1026A000000C0140001001400014014000180140DE
:1026B000001C0140002001400000014000002042B9
:1026C000DF48006840F00100DD49086008464068C6
:1026D000DC490840DA49486008460068DA490840A1
:1026E000D74908600846006820F480200860084642
:1026F000406820F4FE0048604FF41F008860704777
:10270000CF49096821F48031CD4A1160114609682A
:1027100021F480211160B0F5803F03D0B0F5802F07
:102720000ED106E0C649096841F48031C44A1160FF
:1027300007E0C349096841F4A021C14A116000E0E3
:1027400000BF00BF704710B50146002200230020E3
:102750004A11012A02D1BA4C236806E0022A02D1AA
:10276000B74C236A01E0B64C636A01F01F020124F2
:1027700094401C400CB1012000E0002010BD38B591
:10278000002000900024002500BF3120FFF7DBFF70
:1027900005460098401C00900098B0F5A06F01D04D
:1027A000002DF2D03120FFF7CEFF08B1012400E068
:1027B0000024204638BD01460020A14A106820F0C0
:1027C000F80040EAC10010607047A04908607047F7
:1027D000024600209A4B586820F47C1042EA01031C
:1027E0001843974B586070479849086670470146F0
:1027F0000020934A506820F003000843506070475F
:102800008F48406800F00C007047014600208C4A59
:10281000506820F0F00008435060704701460020E7
:10282000874A506820F4E0600843506070470146D2
:102830000020834A506820F4605040EAC100506094
:10284000704729B17E4A527A02437D4B5A7204E0A6
:102850007B4A527A82437A4B5A7270477B49D8310D
:102860000860704701460020754A506820F44040D7
:102870000843506070470021714A20321170704A3D
:1028800082F82010012802D004280AD104E0012196
:102890006B4A2032117005E00521694A203211701F
:1028A00000E000BF00BF7047694908607047644995
:1028B000096A0143624A11627047654944390860F8
:1028C000704730B500210022002400235C4D6D6864
:1028D00005F00C0121B1042905D0082923D105E018
:1028E0005C4D056022E05B4D05601FE0544D6D6856
:1028F00005F47012524D6D6805F48034022505EB25
:1029000092421CB9544D554305600BE04C4D6D6827
:1029100005F400351DB1504D5543056002E04D4DA5
:102920005543056002E04B4D056000BF00BF444DBC
:102930006D6805F0F0010909484D6B5C0568DD40E4
:1029400045603F4D6D6805F4E061090A434D6B5CDD
:102950004568DD4085603A4D6D6805F46051C90AEF
:102960003E4D6B5C4568DD40C560354D6D6805F4D6
:102970004041890B3A4D6B5CC568B5FBF3F50561C9
:1029800030BD29B12E4A526902432D4B5A6104E0F1
:102990002B4A526982432A4B5A61704729B1284A0F
:1029A00092690243264B9A6104E0254A9269824368
:1029B000234B9A61704729B1214AD2690243204BC7
:1029C000DA6104E01E4AD26982431D4BDA61704726
:1029D00029B11B4AD2680243194BDA6004E0184A55
:1029E000D2688243164BDA60704729B1144A1269E3
:1029F0000243134B1A6104E0114A12698243104BDF
:102A00001A61704712494039086070470F49C8641D
:102A100070470B49C87170470948406A40F08070A0
:102A200007494862704701460020054A92680A40FB
:102A30000AB1012000E00020704701498872704708
:102A4000001002400000FFF8FFFFF6FE00004242C7
:102A50008004424200127A0000093D009A060020DC
:102A6000AA06002010B50446FB48844209D1012182
:102A70008803FFF7ADFF00214FF48040FFF7A8FF68
:102A800032E0F648844209D101214804FFF7ADFF46
:102A900000214FF40030FFF7A8FF25E0F048844202
:102AA00009D101218804FFF7A0FF00214FF4802005
:102AB000FFF79BFF18E0EB48844209D10121C804CD
:102AC000FFF793FF00214FF40020FFF78EFF0BE08C
:102AD000E548844208D101210805FFF786FF00215F
:102AE0004FF48010FFF781FF10BD2DE9F04786B04D
:102AF00005460E460024A24600BFA1460027B08925
:102B000000B100BF2F462C8A4CF6FF700440F088BD
:102B100004432C82AC894EF6F3100440B08831890E
:102B20000843718908430443AC81AC8A4FF6FF40E7
:102B30000440B0890443AC8201A8FFF7C2FEC64836
:102B4000874202D1DDF810A001E0DDF80CA0A889D1
:102B500000F4004040B10AEBCA0000EB0A103168F3
:102B60004900B0FBF1F807E00AEBCA0000EB0A10DD
:102B700031688900B0FBF1F86420B8FBF0F0040183
:102B80002009642101FB1089A88900F4004040B1AC
:102B9000322000EBC900B0FBF1F000F00700044365
:102BA00008E0322000EB09106421B0FBF1F000F0E6
:102BB0000F0004432C8106B0BDE8F0874FF4165196
:102BC000016000218180C18001810C2141810021AF
:102BD0008181704710B502460020108A4FF2FF0332
:102BE00018400B884C8823438C882343CC8823438C
:102BF0001843108210BD0021018041808180C18076
:102C0000704721B1828942F40052828104E08289B6
:102C10004DF6FF731A4082817047F0B503460024D9
:102C200000260025002040F66A17B94200D100BFF7
:102C30001846C1F3421401F01F06012707FA06F5F2
:102C4000012C01D10C3004E0022C01D1103000E045
:102C500014301AB107682F43076002E00768AF43DA
:102C60000760F0BD1AB1838A0B43838202E0838A36
:102C70008B4383827047028A4FF6F0731A400282B8
:102C8000028A0A430282704782894FF2FF731A4018
:102C9000828182890A438281704721B1828942F010
:102CA0000202828104E082894FF6FD731A4082811C
:102CB0007047028A4FF6DF731A400282028A0A4383
:102CC0000282704721B1028A42F48042028204E00B
:102CD000028A4BF6FF731A4002827047C1F3080262
:102CE0008280704701468888C0F308007047818958
:102CF00041F0010181817047028BD2B20283028BC5
:102D000042EA012202837047028B02F47F4202836F
:102D1000028B0A430283704721B1828A42F020026B
:102D2000828204E0828A4FF6DF731A408282704703
:102D300021B1828A42F01002828204E0828A4FF638
:102D4000EF731A408282704721B1828A42F00802F2
:102D5000828204E0828A4FF6F7731A4082827047BB
:102D600021B1828942F40042828103E08289C2F368
:102D70000E028281704721B1828A42F4006282820F
:102D800004E0828A4FF2FF731A4082827047828A7F
:102D90004FF6FB731A408282828A0A43828270470E
:102DA00021B1828A42F00202828204E0828A4FF6D6
:102DB000FD731A408282704702460020B1F5007F01
:102DC00000D100BF13880B400BB1012000E00020B0
:102DD000704701F40072B2F5007F00D100BFCA4312
:102DE0000280704770B502460024002300250020B1
:102DF00040F66A16B14200D100BFC1F3421501F09E
:102E00001F03012606FA03F3012D02D196893340F0
:102E100006E0022D02D1168A334001E0968A334043
:102E20000C12012606FA04F41688344013B10CB1D2
:102E3000012000E0002070BD10B50022002340F604
:102E40006A14A14200D100BF0A1201249440A3B227
:102E5000DC43048010BD0000003801400044004005
:102E600000480040004C0040005000403149014300
:102E7000314A1160704770B5002100230F22C478D9
:102E800004B32D4C246804F4E064C4F5E064210A22
:102E9000C1F10403CA40447804FA03F18478144071
:102EA00021430901254C0678A155047804F01F053B
:102EB0000124AC4005786D11AD0005F1E025C5F8A1
:102EC000004109E0047804F01F050124AC401C4DCA
:102ED0000678761145F8264070BD1A4A0A4002432A
:102EE000154B1B1F1A60704739B1134A121D126827
:102EF0000243114B1B1D1A6006E00F4A121D126897
:102F000082430D4B1B1D1A607047042808D14FF0F7
:102F1000E021096941F004014FF0E022116107E06E
:102F20004FF0E021096921F004014FF0E022116126
:102F3000704700000000FA050CED00E000E400E03E
:102F400080E100E080FFFF1F10B50446FE48844288
:102F500008D10121C014FFF73BFD0021E014FFF769
:102F600037FDC4E0B4F1804F08D101210846FFF7D6
:102F70003CFD00210120FFF738FDB8E0F348844212
:102F800008D101210220FFF730FD00210220FFF7C8
:102F90002CFDACE0EE48844208D101210420FFF76B
:102FA00024FD00210420FFF720FDA0E0E948844231
:102FB00008D101210820FFF718FD00210820FFF7A4
:102FC00014FD94E0E448844208D101211020FFF769
:102FD0000CFD00211020FFF708FD88E0DF48844247
:102FE00008D101212020FFF700FD00212020FFF75C
:102FF000FCFC7CE0DA48844208D101214014FFF750
:10300000E7FC00216014FFF7E3FC70E0D548844240
:1030100009D10121C804FFF7DBFC00214FF4002097
:10302000FFF7D6FC63E0D048844209D101210805AE
:10303000FFF7CEFC00214FF48010FFF7C9FC56E0EB
:10304000CA48844209D101214805FFF7C1FC00218B
:103050004FF40010FFF7BCFC49E0C548844208D19A
:1030600001214020FFF7C1FC00214020FFF7BDFCFB
:103070003DE0C048844208D101218020FFF7B5FC23
:1030800000218020FFF7B1FC31E0BB48844208D129
:1030900001218015FFF7A9FC0021A015FFF7A5FC71
:1030A00025E0B648844209D101210804FFF790FCCD
:1030B00000214FF48030FFF78BFC18E0B0488442C9
:1030C00009D101214804FFF783FC00214FF40030AF
:1030D000FFF77EFC0BE0AB48844208D10121880455
:1030E000FFF776FC00214FF48020FFF771FC10BD44
:1030F00000220288944B98420ED0994B98420BD0F4
:10310000B0F1804F08D0914B984205D0904B984237
:1031100002D0904B984204D14FF68F731A404B88DF
:103120001A438D4B984207D08C4B984204D04FF6EF
:10313000FF431A40CB881A4302808B8883850B8813
:103140000385814B98420BD0854B984208D08B4B1E
:10315000984205D08A4B984202D08A4B984201D1BE
:103160000B7A038601238382704770B50024002206
:103170000023058C4FF6FE7635400584028C83884B
:10318000048B4FF68F752C40B51E2C400D882C43B8
:10319000751E2A400D892A434D882A436A4DA8424C
:1031A0000BD06F4DA84208D0744DA84205D0744D85
:1031B000A84202D0734DA84213D14FF6F7752A40AA
:1031C0004D892A434FF6FB752A408D882A434FF6D6
:1031D000FF652B404FF6FF552B408D892B43CD8942
:1031E0002B4383800483CD888586028470BD70B5AF
:1031F000002400220023058C4FF6EF76354005842D
:10320000028C8388048B48F6FF752C404FF6FF45EF
:103210002C400D884FF6FF7606EA05252C434FF625
:10322000DF752A400D8906EA05152A434D8806EA0E
:1032300005152A43444DA84202D0494DA8421DD14C
:103240004FF67F752A404D894FF6FF7606EA051541
:103250002A434FF6BF752A408D8806EA05152A4392
:103260004FF6FF352B404FF2FF752B408D8906EA54
:1032700085052B43CD8906EA85052B43838004838E
:10328000CD880587028470BD70B50024002200231C
:10329000058C4FF6FF6635400584028C8388848B4D
:1032A0004FF68F752C404FF6FC752C400D882C4343
:1032B0004FF6FF552A400D894FF6FF7606EA0525A1
:1032C0002A434D8806EA05252A431F4DA84202D00D
:1032D000234DA8421DD14FF2FF752A404D894FF66C
:1032E000FF7606EA05252A434FF6FF352A408D88EA
:1032F00006EA05252A434EF6FF752B404DF6FF756D
:103300002B408D8906EA05152B43CD8906EA051564
:103310002B4383808483CD888587028470BD70B5FC
:10332000002200230024058C4EF6FF7635400584EC
:10333000038C8488828B48F6FF752A404FF6FF4540
:103340002A400D8820E00000002C014000040040CD
:1033500000080040000C0040001000400014004035
:1033600000340140004C0140005001400054014035
:1033700000180040001C00400020004000400140B8
:1033800000440140004801404FF6FF7606EA05255B
:103390002A434DF6FF752B400D8906EA05352B4370
:1033A0004D8806EA05352B43FA4DA84202D0FA4D66
:1033B000A84208D14BF6FF752C408D894FF6FF7659
:1033C00006EA85152C4384808283CD88A0F840507E
:1033D000038470BD828B4FF2FF331A408283828B4D
:1033E0004FF6FF7303EA01231A4382837047F0B557
:1033F0000C461546002200210026078C4EF6FF7C65
:1034000007EA0C070784828B018C4FF6FF7707EAE7
:10341000043640F6FF473A404FF6FF7707EA0527A4
:103420003A434FF6FF7707EA03373A43D94FB8429A
:103430000ED0D94FB8420BD0B0F1804F08D0D74F43
:10344000B84205D0D64FB84202D0D64FB84206D1C6
:103450004DF6FF77394046F48057394305E047F68B
:10346000FF57394044F48057394382830184F0BDCB
:10347000828B4FF6F3731A408283828B0A438283D6
:103480007047F0B50C461546002200210026078C37
:103490004FF6FF6C07EA0C070784828B018C4FF60E
:1034A000FF7707EA04264FF60C773A404FF6FF778E
:1034B00007EA03172F433A43B64FB8420ED0B64F30
:1034C000B8420BD0B0F1804F08D0B44FB84205D00D
:1034D000B34FB84202D0B34FB84206D14FF6FF57B0
:1034E000394046F48077394305E04FF2FF573940C1
:1034F00044F48077394382830184F0BD028B4FF21C
:10350000FF331A400283028B4FF6FF7303EA012355
:103510001A4302837047F0B50C461546002200217D
:103520000026078C4FF6EF7C07EA0C070784028B16
:10353000018C4FF6FF7707EA041640F6FF473A4042
:103540004FF6FF7707EA03373A434FF6FF7707EA6C
:1035500005273A438F4FB8420ED08F4FB8420BD059
:10356000B0F1804F08D08D4FB84205D08C4FB84293
:1035700002D08C4FB84206D14FF6DF77394046F083
:103580001007394305E04FF65F77394044F01007E4
:10359000394302830184F0BD028B4FF6F3731A4066
:1035A0000283028B0A4302837047F0B50C4615462E
:1035B00000220021068C4FF6FE773E400684028BE7
:1035C000018C4FF60C7632407E1C06EA03162E4321
:1035D0003243704EB0420ED06F4EB0420BD0B0F1BD
:1035E000804F08D06D4EB04205D06D4EB04202D033
:1035F0006C4EB04206D14FF6FD76314044F00106E4
:10360000314305E04FF6F576314044F00106314391
:1036100002830184F0BD70B505460C465D488542C5
:103620000ED05D4885420BD0B5F1804F08D05B4885
:10363000854205D05A48854202D05A48854200D179
:1036400000E000BF208850B92389A28861882846FD
:10365000FFF7ABFFE1882846FFF79EFF25E02088B3
:1036600004280AD12389A28861882846FFF753FFDE
:10367000E1882846FFF742FF17E0208808280AD192
:103680002389A28861882846FFF7FBFEE188284647
:10369000FFF7EEFE09E02389A28861882846FFF73C
:1036A000A6FEE1882846FFF795FE70BD2DE9F041A2
:1036B00005460C4600260127608808B9022600E06E
:1036C0000026A088012801D1022700E001272088D8
:1036D000A0B92389A28861882846FFF766FFE188A0
:1036E0002846FFF759FF23893A4631462846FFF717
:1036F00012FFE1882846FFF701FF13E02389A28823
:1037000061882846FFF707FFE1882846FFF7F6FEA5
:1037100023893A4631462846FFF747FFE188284685
:10372000FFF73AFFBDE8F0810A884B881A438B887F
:103730001A43CB881A430B891A434B891A438B8946
:103740001A43A0F8442070474FF6FF718180002192
:103750000180C18041800172704700210180418059
:103760008180C180018141818181C18170470021B7
:1037700001804180012181800021C1800181704749
:103780000021018041808180C1800181418181814E
:1037900070470000002C014000340140000400404C
:1037A00000080040000C004021B1028842F00102F4
:1037B000028004E002884FF6FE731A4002807047D0
:1037C00031B1B0F8442042F40042A0F8442005E0B2
:1037D000B0F84420C2F30E02A0F8442070471AB19A
:1037E00083890B43838102E083898B438381704704
:1037F0008182704741EA0203A0F8483070471AB14D
:1038000083890B43838102E083898B4383817047E3
:1038100001894FF6F8721140018170470A46002174
:1038200001894FF68F73194011430181704730B5FC
:1038300004460D4629462046FFF7F0FF208940F058
:103840000700208130BD2DE9F04104460D461646A3
:103850001F46602D06D13B46012231462046FFF728
:103860005AFE05E03B46012231462046FFF79DFE09
:1038700029462046FFF7D2FF208940F0070020812B
:10388000BDE8F08130B50C4600210189C9B24FF680
:10389000FF7505EA0325154325432943018130BD02
:1038A0002DE9F04105460E4617469846002443464A
:1038B0003A4631462846FFF7E5FF2C894FF6F87067
:1038C000044044F007044FF68F70044044F0700445
:1038D0002C81BDE8F081F0B504460D4616461F4622
:1038E0003B46324629462046FFF7CCFF208940F46C
:1038F00080402081F0BD0185828270470A46002108
:1039000001884FF68F731940114301807047F0B55D
:103910000C4615461E460021002200230189028B19
:10392000038C4FF6F877394021434FF6FC473A4075
:1039300040F201173A434FF6DD773B404FF6FF77F1
:1039400007EA06172F433B43018102830384F0BD3E
:103950000A460021018B4FF68F73194011430183F2
:1039600070470A460021018B48F6FF7319404FF655
:10397000FF7303EA02231943018370470A460021BB
:10398000818B4FF68F7319401143818370470A462C
:103990000021818B48F6FF7319404FF6FF7303EA4D
:1039A000022319438183704721B1028842F08002CB
:1039B000028004E002884FF67F731A40028070474D
:1039C00021B1828842F00402828004E082884FF6AE
:1039D000FB731A408280704721B1828842F008024E
:1039E000828004E082884FF6F7731A408280704725
:1039F00021B1828842F00102828004E082884FF681
:103A0000FE731A40828070470A460021018B4FF6F0
:103A1000F77319401143018370470A460021018B57
:103A20004FF2FF7319404FF6FF7303EA0223194365
:103A3000018370470A460021818B4FF6F7731940C6
:103A40001143818370470A460021818B4FF2FF7337
:103A500019404FF6FF7303EA02231943818370472D
:103A60000A460021018B4FF6FB7319401143018375
:103A700070470A460021018B4FF6FF3319404FF67D
:103A8000FF7303EA02231943018370470A460021AA
:103A9000818B4FF6FB7319401143818370470A46AF
:103AA0000021818B4FF6FF3319404FF6FF7303EA75
:103AB00002231943818370470A460021018B4FF688
:103AC0007F7319401143018370470A460021018B1F
:103AD000C1F30E014FF6FF7303EA0223194301837A
:103AE00070470A460021818B4FF67F7319401143BE
:103AF000818370470A460021818BC1F30E014FF686
:103B0000FF7303EA02231943818370470A460021A9
:103B1000018C4FF6FD7319401143018470470A462A
:103B20000021018C4FF6F77319401143018470474F
:103B30000A460021018C4FF6DF7319404FF6FF73E0
:103B400003EA02131943018470470A460021018CDD
:103B50004FF67F7319404FF6FF7303EA02131943C0
:103B6000018470470A460021018C4FF6FF5319402B
:103B70004FF6FF7303EA02231943018470470A4694
:103B80000021018C4FF2FF7319404FF6FF7303EAD7
:103B900002231943018470470A460021018C4DF627
:103BA000FF7319404FF6FF7303EA02331943018490
:103BB000704730B5002301248C40A3B2048C9C4391
:103BC0000484048C02FA01F5ADB22C43048430BDA8
:103BD00030B5002304248C40A3B2048C9C4304849D
:103BE000048C02FA01F5ADB22C43048430BD70B5EB
:103BF0000346002000241846183001258D40ACB241
:103C00001D8CA5431D8409B1082909D100EB610071
:103C1000056825F0700505600568154305600EE030
:103C20000D1FC5F34E052844056825F4E0450560E1
:103C300005684FF6FF7606EA02263543056070BD3B
:103C400021B1028842F00202028004E002884FF6AD
:103C5000FD731A400280704721B1028842F00402CD
:103C6000028004E002884FF6FB731A40028070471E
:103C700021B1828842F08002828004E082884FF67F
:103C80007F731A408280704702884FF6F7731A409C
:103C9000028002880A430280704782884FF68F7341
:103CA0001A40828082880A438280704702894FF6D8
:103CB000F8731A40028102890A430281704702891F
:103CC0004FF67F731A40028102890A4302817047CE
:103CD000818470478185704781867047018770476E
:103CE00081877047A0F84010704702884FF6FF4365
:103CF0001A40028002880A43028070470146888E7B
:103D000070470146088F70470146888F704701460B
:103D1000B1F8400070470146888C70470146088D15
:103D2000704702460020138A0B400BB1012000E0CF
:103D300000207047CA430282704730B50246002017
:103D400000230024158A05EA0103958905EA010488
:103D500013B10CB1012000E0002030BDCA43028243
:103D60007047000010B50446F748844209D101218C
:103D70004805FEF73AFE00214FF40010FEF735FE2D
:103D800008E001218805FEF730FE00214FF4800095
:103D9000FEF72BFE10BD2DE9F04385B004460D461D
:103DA0000026B1460427DFF8A483A6884FF6C0702A
:103DB00006406846FEF785FDDDF80880E448B8FB5C
:103DC000F0F01FFA80F946EA0906A68020884FF62F
:103DD000FE71084020800026DE49286888420CD801
:103DE00028684000B8FBF0F087B2042F00DA0427FF
:103DF0003E4309F10100208427E0E8884BF6FF717B
:103E0000884206D1286800EB4000B8FBF0F087B28A
:103E100009E0286800EBC00101EB0010B8FBF0F0EE
:103E200087B247F48047C7F30B0008B947F0010792
:103E300047F4004006434FF4967009FB00F04FF43E
:103E40007A7190FBF1F0401C2084A683208840F01A
:103E50000100208026884FF6F5300640A888698941
:103E6000084306432680A88929890843208105B094
:103E7000BDE8F08341F288310160002181804BF67A
:103E8000FF71C1800021018141814FF48041818116
:103E9000704721B1028842F00102028004E00288EA
:103EA0004FF6FE731A400280704721B1828842F4B7
:103EB0000062828004E082884FF2FF731A408280A1
:103EC000704721B1828842F48052828004E0828867
:103ED0004EF6FF731A408280704721B1028842F487
:103EE0008072028004E002884FF6FF631A4002806D
:103EF000704721B1028842F40072028004E0028817
:103F00004FF6FF531A400280704721B1028842F4F5
:103F10008062028004E002884FF6FF331A4002807C
:103F200070470A46002181894FF60173194002F05B
:103F3000FE0319438181704721B1828942F0010259
:103F4000828104E082894FF6FE731A4082817047B5
:103F500021B1028842F04002028004E002884FF65C
:103F6000BF731A40028070471AB183880B43838065
:103F700002E083888B43838070470182704701464B
:103F8000088AC0B2704712B141F0010102E04FF659
:103F9000FE7319400182704708B502460020009068
:103FA00000920098084400900098008808BD21B154
:103FB000028842F40042028003E00288C2F30E024B
:103FC00002807047B1F5006F04D1028842F40062AC
:103FD000028004E002884FF2FF731A4002807047AB
:103FE000B1F5005F04D1028842F40052028004E07F
:103FF00002884DF6FF731A400280704721B1028893
:1040000042F48052028004E002884EF6FF731A40A8
:1040100002807047B1F5006F04D1028842F400625B
:10402000028004E002884FF2FF731A40028070475A
:1040300021B1028842F02002028004E002884FF69B
:10404000DF731A40028070470146088B00127047E8
:1040500021B1028842F01002028004E002884FF68B
:10406000EF731A400280704721B9028842F0800243
:10407000028004E002884FF67F731A400280704786
:10408000B1F5804F05D0828B4BF6FF731A408283C7
:1040900003E0828B42F480428283704770B502460F
:1040A0000024002500230020958A138B1B0445EA79
:1040B000030626F07F4404EA01068E4201D1012066
:1040C00000E0002070BD10B5014600200023002252
:1040D0008B8A0A8B120443EA020424F07F4010BD4D
:1040E0000CB50246002000230193009300920B0FB1
:1040F000019321F07F41019B1BB1009B143300937E
:1041000003E0090C009B18330093009B1B680B40D5
:104110000BB1012000E000200CBD002221F07F4205
:10412000D3438382704730B5024600200023948831
:1041300001F0E06504EA154321F07F41948A0C40C8
:1041400054B14BB1012008E00054004000127A0045
:1041500040420F00A0860100002030BD002221F067
:104160007F42D3438382704738B50446FB4890F8BA
:104170002400C0B114B10220009001E000200090A2
:10418000F64A1268D17BF54A526810786B460122D4
:10419000FDF76CFB10B14FF0FF3038BD9DF80010FB
:1041A000EE48417423E0ED48807A10B94FF0FF30BB
:1041B000F3E724B1E948407C08B10020EDE714B1F1
:1041C0000120009001E000200090E44A1268D17BB9
:1041D000E24A526810786B460122FDF747FB10B1A6
:1041E0004FF0FF30D9E79DF80010DC484174002003
:1041F000D3E738B5002419E0D8480068C07AA04257
:1042000004D0D6480068407DA04200D10CE0D349DC
:10421000496808786B4601222146FDF789FB10B1F9
:104220004FF0FF3038BD00BF601CC4B2CB484068BF
:104230000079A042E0DC0020F4E770B504460D46AA
:10424000C6480068C07AA04204D0C4480068407DD7
:10425000A04202D14FF0FF3070BDC04840680079E5
:10426000A04202DC4FF0FF30F6E7BC49496808780D
:104270002B4601222146FDF75BFBEDE738B50446EE
:10428000B64890F82300A04201D1002038BD14B1F7
:104290003020009001E000200090B048807C20B1E8
:1042A0009DF8000040F002000090AC4890F8220019
:1042B00020B19DF8000040F080000090A74A1268ED
:1042C000117DA64A526810786B460122FDF7CEFA9E
:1042D00010B14FF0FF30D9E7A04880F8234000200C
:1042E000D4E738B5044604F0700010B10120009006
:1042F00005E014B10020009001E040200090974AB2
:104300001268917C954A526810786B460122FDF73D
:10431000ADFA20B1002191488172481E38BD9DF848
:10432000000020F040018D4801730020009004F04F
:10433000400020B99DF8000040F00400009004F017
:10434000200020B99DF8000040F00200009004F029
:10435000100020B99DF8000040F00100009004F02A
:10436000080020B99DF8000040F0380000907B4A1A
:104370001268D17C794A526810786B460122FDF7A9
:1043800075FA20B1002175488172481EC6E724B134
:10439000082C02D00020FFF771FF704884720021C2
:1043A00001753220FDF7F1FE0020B7E738B504466D
:1043B0006A48807CA04201D1002038BD002C46D044
:1043C000664A12681179654A526810786B46012274
:1043D000FDF7AEFA10B14FF0FF30EEE79DF80000A8
:1043E00020F0200000905D4A126811795B4A526803
:1043F00010786B460122FDF739FA10B14FF0FF300B
:10440000DBE70320FDF7C1FE02200090534890F83F
:10441000220020B19DF8000040F0800000904F483D
:1044200090F8230020B19DF8000040F0300000908B
:104430004A4A1268117D494A526810786B46012237
:10444000FDF714FA002851D04FF0FF30B5E7434A8A
:1044500012681179414A526810786B460122FDF7C3
:1044600067FA10B14FF0FF30A7E73C48807A00F0C0
:10447000010028B19DF8000040F02000009004E009
:104480009DF8000020F020000090344A1268117955
:10449000324A526810786B460122FDF7E7F910B1F5
:1044A0004FF0FF3089E70320FDF76FFE2B4890F8AF
:1044B000220010B18020009001E0002000902748E9
:1044C00090F8230020B19DF8000040F030000090EB
:1044D000224A1268117D214A526810786B460122E7
:1044E000FDF7C4F910B14FF0FF3066E71B48847444
:1044F000002062E708B51948807A10B94FF0FF3004
:1045000008BD00200090154A1268D17B134A5268FA
:1045100010786B460122FDF7A9F910B14FF0FF307A
:10452000EEE70E4A126851790C4A526810786B46D1
:104530000122FDF79BF910B14FF0FF30E0E7074A89
:1045400012681179054A526810786B460122FDF70E
:104550008DF928B14FF0FF30D2E70000B0060020FF
:10456000F74890F82400002850D00C200090F44A1E
:1045700012681179F24A526810786B460122FDF7F1
:1045800075F910B14FF0FF30BAE7C0200090EC4849
:10459000807A00F0010020B19DF8000040F020007A
:1045A0000090E74A12681179E54A526810786B4624
:1045B0000122FDF75BF910B14FF0FF30A0E7E048B2
:1045C000407C10B10220009001E000200090DC4A05
:1045D0001268D17BDA4A526810786B460122FDF7E7
:1045E00045F910B14FF0FF308AE700200090D44A1F
:1045F00012685179D24A526810786B460122FDF751
:1046000035F9002852D04FF0FF3079E704200090B0
:10461000CB4A12681179CA4A526810786B46012257
:10462000FDF724F910B14FF0FF3069E7C448807CF2
:1046300020B9C348807A00F0010010B940200090F2
:1046400001E060200090BE4A12681179BC4A5268AD
:1046500010786B460122FDF709F910B14FF0FF30D9
:104660004EE7B748407C10B10120009001E00020E7
:104670000090B34A1268D17BB14A526810786B46F9
:104680000122FDF7F3F810B14FF0FF3038E7AC4AE4
:1046900012685179AA4A52681078A94B1033012246
:1046A000FDF7E4F810B14FF0FF3029E7002027E7CD
:1046B00070B50446002624F00104A14890F82400B7
:1046C00008B1002070BD9E48807A10B94FF0FF30CD
:1046D000F8E79B48057C807A204099490874084691
:1046E000007CA04202D04FF0FF3600E0002614B953
:1046F0009348007D18B10120FFF736FD02E000204D
:10470000FFF732FD3CB1FFF7F5FE20B18C48057490
:104710004FF0FF30D6E73046D4E738B50446884836
:10472000807A10B94FF0FF3038BDBC2C02DB01207D
:10473000009015E0622C02DB0220009010E02A2C91
:1047400002DB032000900BE0142C02DB042000901D
:1047500006E00A2C02DB0520009001E00620009014
:104760007748C07A9DF80010884201D10020DBE72D
:10477000734A12689178724A526810786B46012227
:10478000FDF774F810B14FF0FF30CDE79DF8001041
:104790006B48C1720020C7E738B50446282C02DDFB
:1047A0004FF0FF3038BDDCB90020FFF767FD002077
:1047B0008DF8000007208DF80100614A1268917C95
:1047C0005F4A526810786B460222FDF74FF810B12D
:1047D0004FF0FF30E6E70021594801750020E1E77E
:1047E0000120FFF74BFD20208DF80000012C06D1A1
:1047F00000208DF801000520FFF78FFF17E0052C42
:1048000006DC01208DF801000520FFF786FF0EE091
:10481000142C06DC02208DF801000A20FFF77DFF32
:1048200005E003208DF801001420FFF776FF9DF8C6
:104830000100072101EB8010C0B28DF80100404A51
:104840001268917C3E4A526810786B460222FDF74E
:104850000DF810B14FF0FF30A4E7082138488172FD
:1048600000210173012101750020FFF721FF0020C5
:1048700098E738B504463248807A10B94FF0FF30D7
:1048800038BD2F4890F8240010B14FF0FF30F7E703
:104890002B48007D50B134B1282C04DCE0B2FFF786
:1048A0007BFF0020ECE70020FFF776FF042C01DA05
:1048B000042404E0B4F57A7F01DD4FF47A744FF4F8
:1048C0007A7090FBF4F0401EC0B200901C4A12684F
:1048D00051781B4A526810786B460122FCF7C6FFDC
:1048E00010B14FF0FF30CBE79DF80000401C4FF4B3
:1048F0007A7191FBF0F081B21148C1810146C989FA
:104900004810FFF70AFF0020BAE738B504460C4804
:10491000807A10B94FF0FF3038BD022C06D0042C3D
:1049200007D0082C08D0102C0FD10BE000200090ED
:104930000EE0082000900BE01020009008E000003E
:10494000B00600201820009002E04FF0FF30E3E7AF
:1049500000BFF948407A9DF80010B0EBE10F01D19B
:104960000020D9E7F44A1268D179F34A52681078E6
:104970006B460122FCF77AFF10B14FF0FF30CBE716
:104980009DF80000C110EC4841720020C4E738B522
:104990000446E948807A10B94FF0FF3038BDFA2C50
:1049A00009D0B4F5FA7F09D0B4F57A7F09D0B4F50F
:1049B000FA6F0CD108E0002000900BE00820009076
:1049C00008E01020009005E01820009002E04FF071
:1049D000FF30E3E700BFD848007A9DF80010B0EB45
:1049E000E10F01D10020D9E7D34A12689179D24A68
:1049F000526810786B460122FCF738FF10B14FF077
:104A0000FF30CBE79DF80000C010CB4908720020B2
:104A1000C4E71CB580208DF80000C74A1268917C5D
:104A2000C54A526810786B460122FCF71FFF10B18F
:104A30004FF0FF301CBD6420FDF7A7FB00208DF870
:104A40000000BD4A1268917CBB4A526810786B46E0
:104A50000122FCF70BFF10B14FF0FF30EAE7B64A36
:104A60001268917DB44A526810786B460622FCF7B2
:104A70005FFF10B14FF0FF30DCE79DF80500C00785
:104A8000400F9DF8031001F0010140EA41009DF83C
:104A9000011001F0010140EA010494B1012C03D19D
:104AA0000121A548C17431E0022C03D10021A248A4
:104AB000C1742BE02146A1A002F0D0FF4FF0FF30DF
:104AC000B8E79D4A1268D1789B4A526810786B46C5
:104AD0000122FCF72DFF10B14FF0FF30AAE79DF83F
:104AE000000000F00F042CB99E4802F0B7FF4FF011
:104AF000FF309FE7042C06D19BA002F0AFFF0121FD
:104B00008D48C17402E000218B48C174FF218A489E
:104B10008172FF2088490872FF2187484172C17263
:104B20004FF6FF71C181FF2101748174012101736E
:104B300080F82210002180F823104175017516308D
:104B4000016041608160163880F8241080F82510DB
:104B5000C1844FF4FA60FFF71AFF10B14FF0FF3035
:104B600068E70220FFF7D1FE10B14FF0FF3061E798
:104B70002A20FFF7D2FD10B14FF0FF305AE7322064
:104B8000FFF777FE10B14FF0FF3053E70020FFF73B
:104B90008FFD10B14FF0FF304CE70020FFF706FC0F
:104BA00010B14FF0FF3045E70020FFF79AFB0020DF
:104BB00040E770477CB504460D465F48807A00F0B8
:104BC000700010B94FF0FF307CBD5B4A1268117B5A
:104BD000594A526810786B460622FCF7A9FE10B1BC
:104BE0004FF0FF30F0E79DF801009DF8001040EA1B
:104BF000012000B220809DF803009DF8021040EAD9
:104C0000012000B260809DF805009DF8041040EA84
:104C1000012000B2A08015B12846FFF7CAFF00208E
:104C2000D2E77CB504460D464348807A00F0080080
:104C300010B94FF0FF307CBD3F4A1268517B3E4AAD
:104C4000526810786B460622FCF772FE10B14FF0E6
:104C5000FF30F0E79DF801009DF8001040EA0120C8
:104C600000B220809DF803009DF8021040EA012068
:104C700000B260809DF805009DF8041040EA012014
:104C800000B2A08015B12846FFF793FF0020D2E7BD
:104C90002DE9FE4F05460C462748807A18B94FF09B
:104CA000FF30BDE8FE8F244A1268917B224A526889
:104CB000107802AB0222FCF73BFE10B14FF0FF3040
:104CC000EFE79DF809009DF8081040EA012006B2C0
:104CD00014B12046FFF76DFF17494968C88806F0F0
:104CE000C7F8154901904968B1F9080006F0A8F81D
:104CF0008346304606F0A4F85946009006F008FABC
:104D00008246019905F06AFF81461F4905F0F8FEC9
:104D100080464FF08F4106F0F3F8074606F054F84E
:104D200028600020BDE710B588B004461CB94FF0DC
:104D3000FF3008B010BD29E0B0060020556E737535
:104D400070706F7274656420736F667477617265DA
:104D50002070726F64756374207265762025642EEE
:104D60000A0000005CC9000848616C662073656E2B
:104D70007369746976697479207061727420666FE2
:104D8000756E642E0D0A000000000C42206830B9D8
:104D9000606820B9A06810B9002008B010BDFA49B9
:104DA0004968087806AB03221146FCF7C1FD10B133
:104DB0004FF0FF30F1E79DF81800082101EB2010BB
:104DC00000F00F00ADF800009DF8190001EB201075
:104DD00000F00F00ADF802009DF81A0001EB201062
:104DE00000F00F00ADF8040020684100BDF900009C
:104DF000403091FBF0F000B2ADF810006068410067
:104E0000BDF90200403091FBF0F000B2ADF81200A5
:104E1000A0684100BDF90400403091FBF0F000B201
:104E2000ADF81400D8494968087806AB0622114647
:104E3000FCF77EFD10B14FF0FF30AEE79DF8190092
:104E40009DF8181040EA012000B2ADF808009DF866
:104E50001B009DF81A1040EA012000B2ADF80A00CC
:104E60009DF81D009DF81C1040EA012000B2ADF82D
:104E70000C00BDF81000BDF80810084400B2ADF8F1
:104E80001000BDF81200BDF80A10084400B2ADF8D9
:104E90001200BDF81400BDF80C10084400B2ADF8C3
:104EA0001400BDF81000000A8DF81800BDF81000BD
:104EB000C0B28DF81900BDF81200000A8DF81A0072
:104EC000BDF81200C0B28DF81B00BDF81400000A36
:104ED0008DF81C00BDF81400C0B28DF81D00AA4961
:104EE0004968087806AB06221146FCF7BFFC10B1F2
:104EF0004FF0FF3051E700204FE70146A248007A0B
:104F000030B1012807D0022809D003280FD10AE0C8
:104F1000FA2008800EE04FF4FA7008800AE04FF49F
:104F20007A70088006E04FF4FA60088002E0002002
:104F3000088000BF00BF0020704701469248407AB9
:104F400030B1012807D0022808D003280CD108E08E
:104F5000022008700BE00420087008E008200870A8
:104F600005E01020087002E04FF0FF30704700BFEE
:104F70008548C07C18B108784006000E08700020F3
:104F8000F4E701468048C07A082817D2DFE800F02D
:104F90001704070A0D101318BC20088013E06220C4
:104FA000088010E02A2008800DE0142008800AE024
:104FB0000A20088007E00520088004E000BF00BF49
:104FC0000020088000BF00BF0020704701466E48E7
:104FD00090F8240010B14FF0FF3070476A48C08944
:104FE00008800020F9E7014600200880401E704735
:104FF00001464FF0FF30704701466348007A30B1F8
:10500000012807D0022808D003280CD108E05F4807
:1050100008600BE05E48086008E05E48086005E054
:105020005D48086002E04FF0FF30704700BF00208D
:10503000FBE701465448407A30B1012808D00228E5
:105040000AD0032810D10BE04FF4804008800EE016
:1050500041F69C7008800AE04FF48050088006E01A
:105060004FF40060088002E04FF0FF30704700BF4F
:105070004548C07C10B10888401008800020F5E742
:1050800001464148007C08700020704701463E48B8
:10509000807A10B10120087001E000200870002023
:1050A000704738B504463848807A10B94FF0FF3061
:1050B00038BD354A1268117C334A526810786B4605
:1050C0000222FCF735FC10B14FF0FF30F0E79DF8FD
:1050D00001009DF8001040EA012000B2208000206D
:1050E000E6E72DE9FE4F0746884692461D46DDF865
:1050F00030B000260024244890F8240010B1601E2F
:10510000BDE8FE8F002028701F48807A10B94FF04C
:10511000FF30F5E71C48007C10B94FF0FF30EFE797
:105120001948007C00F0400008B1B01CC6B2164817
:10513000007C00F0200008B1B01CC6B21248007C10
:1051400000F0100008B1B01CC6B20F48007C00F09F
:10515000080008B1B01DC6B20B4A1268917A0A4A1B
:10516000526810786B460222FCF7E2FB10B14FF058
:10517000FF30C5E79DF801009DF8001040EA0129C5
:10518000B1450BDA0020BBE7B00600200000034366
:10519000000083423333034233338341FC48406889
:1051A0004088B9EB600F17DDF94A1268517CF84A64
:1051B000526810786B460122FCF7BAFB10B14FF031
:1051C000FF309DE79DF8000000F0100020B1FFF7D0
:1051D00091F96FF0010093E75046FFF7EAFCEC4AC3
:1051E0001268D17AEA4A526810786B463246FCF768
:1051F0009FFB10B14FF0FF3082E799FBF6F0401EA5
:105200008BF8000000202870B4422AD0E048007CCF
:1052100000F0080028B3601C1DF800001DF8041001
:1052200040EA012000B2A8F80000E01C1DF80010C0
:10523000A01C1DF8000041EA002000B2A8F80200FE
:10524000601D1DF80010201D1DF8000041EA00201F
:1052500000B2A8F80400287840F008002870A01DCB
:1052600084B2B44213D0CA48007C00F0400070B150
:10527000601C1DF800001DF8041040EA012000B277
:105280003880287840F040002870A01C84B2B442D6
:1052900013D0BF48007C00F0200070B1601C1DF8E6
:1052A00000001DF8041040EA012000B27880287840
:1052B00040F020002870A01C84B2B44213D0B4483F
:1052C000007C00F0100070B1601C1DF800001DF89B
:1052D000041040EA012000B2B880287840F01000A5
:1052E0002870A01C84B200200AE7F8B504460F46D7
:1052F0001646A74890F8240010B94FF0FF30F8BDCB
:10530000A348807A10B94FF0FF30F8E7A04A12683E
:10531000917A9F4A526810786B460222FCF708FB8C
:1053200010B14FF0FF30EAE79DF801009DF8001042
:1053300040EA0125A54203DA00203070401EDEE776
:10534000934840684088B5EB600F17DD904A1268BB
:10535000517C8F4A526810786B460122FCF7E8FABC
:1053600010B14FF0FF30CAE79DF8000000F01000C8
:1053700020B1FFF7BFF86FF00100C0E7E2B2844B45
:105380001B68D97A824B5B6818783B46FCF7D0FAE9
:1053900010B14FF0FF30B2E795FBF4F0401E3070D3
:1053A0000020ACE701467A4880F8221000207047C0
:1053B0007CB5054676494968087801AB04220D2181
:1053C000FCF7B6FA08B107207CBD9DF80700C0F3D2
:1053D00001109DF8041001F0E00140EAE1008DF8B1
:1053E00000009DF80700C0F381009DF8051001F052
:1053F000E00140EAE1008DF801009DF8070000F0AF
:1054000003009DF8061001F0E00140EAE1008DF88C
:10541000020000241CE01DF8040018B9002045F823
:10542000240013E05B4845F8240006E055F824000A
:10543000594905F065FD45F824001DF80400401E9B
:10544000C0B20DF804000028F0D100BF601CC4B247
:10545000032CE0DB0020B7E72DE9FE4F06460F46A0
:1054600000256846FFF7A4FF002442E056F8240018
:1054700057F82410A0EB010ABAF1000F01DB5146E6
:1054800001E0CAF10001084605F0DAFC83464FF05E
:105490008F4105F0A3FB80465DF82400002105F054
:1054A0005FFC16D05DF82410404605F097FB82465D
:1054B0004FF07E5105F02CFE814629F0004A374816
:1054C000416A504605F0E8FD12D20120A040054394
:1054D0000EE03248C169404605F0DEFC05D32F4896
:1054E000016A404605F0D8FD02D20120A0400543E4
:1054F000641C032CBADB2846BDE8FE8F2DE9FC5F57
:1055000006460F46002522494968087801AB032268
:105510000D21FCF70DFA10B10720BDE8FC9F9DF8A6
:10552000040000F01F008DF804009DF8050000F055
:105530001F008DF805009DF8060000F01F008DF893
:105540000600002462E056F8240057F82410A0EB6F
:10555000010BBBF1000F01DB594601E0CBF100016B
:10556000084605F06DFC4FF08F41009005F036FBCA
:10557000814601A8005DC0B30849086805F078FCC1
:1055800083465946064805F029FB80460FE0000097
:10559000B00600207B14AE3E1D5A843F30BB00088D
:1055A00000B04C45FE49404605F0AAFC804601A8E3
:1055B000005D401EC0B201A908550028F2D1414645
:1055C000484605F00BFB83464FF07E5105F0A0FDE9
:1055D00082462AF0004BF3488169584605F05CFD8D
:1055E00013D20120A04005430FE0FFE7ED48016919
:1055F000484605F051FC05D3EA484169484605F0A4
:105600004BFD02D20120A0400543641C032C9ADB11
:10561000284682E72DE9F04F87B005460C469146B3
:1056200001208DF8100000208DF81100DE4A12686C
:10563000917CDD4A5268107804AB0222FCF716F91F
:1056400020B14FF0FF3007B0BDE8F08FC820FCF765
:105650009CFD00208DF81000D34A1268D17BD24AFD
:105660005268107804AB0122FCF700F910B14FF03A
:10567000FF30E8E7CC4A12685179CB4A526810787B
:1056800004AB0122FCF7F2F810B14FF0FF30DAE77B
:10569000C54A1268917CC44A5268107804AB012252
:1056A000FCF7E4F810B14FF0FF30CCE7BE4A1268C7
:1056B000D17DBD4A5268107804AB0122FCF7D6F8C0
:1056C00010B14FF0FF30BEE7B74A12681179B64A01
:1056D0005268107804AB0122FCF7C8F810B14FF003
:1056E000FF30B0E70C208DF81000AF4A1268117936
:1056F000AD4A5268107804AB0122FCF7B7F810B13C
:105700004FF0FF309FE70F20FCF73FFDA648806A6F
:10571000407A8DF81000A44A12689178A24A526823
:10572000107804AB0122FCF7A1F810B14FF0FF3064
:1057300089E79D48806A007A8DF810009A4A1268BD
:105740005178994A5268107804AB0122FCF78EF820
:1057500010B14FF0FF3076E7B9F1000F07D0924853
:10576000806A807A40F0E0008DF8100004E08E48F6
:10577000806A807A8DF810008B4A126891798A4A83
:105780005268107804AB0122FCF770F810B14FF0AA
:10579000FF3058E7B9F1000F07D08348806AC07A1C
:1057A00040F0E0008DF8100003E07E48C07A8DF8EC
:1057B00010007D4A1268D1797B4A5268107804AB98
:1057C0000122FCF753F810B14FF0FF303BE7B9F17D
:1057D000000F02D0C820FCF7D8FC40208DF8100044
:1057E000714A12681179704A5268107804AB01222C
:1057F000FCF73CF810B14FF0FF3024E778208DF82B
:105800001000694A12685179674A5268107804ABEF
:105810000122FCF72BF810B14FF0FF3013E761497C
:105820008889FCF7B2FC00208DF810005E4A1268EF
:1058300051795D4A5268107804AB0122FCF716F8E2
:1058400010B14FF0FF30FEE6574A1268917A564A7F
:105850005268107804AB0222FCF76AF810B14FF0DE
:10586000FF30F0E69DF811009DF8101040EA012B82
:105870000C209BFBF0F0C6B20020A8606860286096
:10588000A06060602060824665E0474A1268D17A75
:10589000454A5268107804AB0C22FCF749F810B165
:1058A0004FF0FF30CFE69DF811009DF8101040EA50
:1058B000012000B2ADF808009DF813009DF8121009
:1058C00040EA012000B2ADF80A009DF815009DF8ED
:1058D000141040EA012000B2ADF80C00BDF9081028
:1058E000206808442060BDF90A10606808446060C0
:1058F000BDF90C10A0680844A0609DF817009DF841
:10590000161040EA012000B2ADF800009DF8190021
:105910009DF8181040EA012000B2ADF802009DF891
:105920001B009DF81A1040EA012000B2ADF80400F7
:10593000BDF90010286808442860BDF902106868A5
:1059400008446860BDF90410A8680844A8600AF11A
:10595000010000F0FF0AB24597DB1248D0F800C002
:105960002868C117090441EA104107046246002370
:10597000384602F04EF832460023CDE9020102F02B
:1059800048F828600748D0F800C06868C1170904C3
:1059900041EA1041070462460023384606E0000051
:1059A00054E3853F30BB0008B006002002F031F818
:1059B00032460023CDE9020102F02BF86860FE4870
:1059C000D0F800C0A868C117090441EA10410704D3
:1059D00062460023384602F01CF832460023CDE927
:1059E000020102F016F8A860F348D0F804C021685C
:1059F000C817000440EA11480F04624600233846E5
:105A0000414602F006F832460023CDE9020102F0D9
:105A100000F82060E848D0F804C06068C1170904A5
:105A200041EA1041070462460023384601F0F1FFC5
:105A300032460023CDE9020101F0EBFF6060DE4851
:105A4000D0F804C0A068C117090441EA1041070456
:105A500062460023384601F0DCFF32460023CDE9E0
:105A6000020101F0D6FFA060A068002804DDA06854
:105A7000A0F58030A06003E0A06800F58030A06051
:105A80000020E0E538B50446CC4890F82400A04258
:105A900001D1002038BD24B3C84890F8250010B9C2
:105AA0004FF0FF30F6E70020FEF75EFB0020FEF728
:105AB0007DFCC249C88CFEF7DCFE00200090BF4987
:105AC000496808786B4601222321FBF7CFFE0121AC
:105AD000BA4880F824100120FEF746FBFEF70AFDC5
